:020000040804EE
:1000000000F80120D50104087101040875010408F5
:10001000790104087D01040881010408D101040864
:10002000D1010408D1010408D1010408D101040858
:10003000D1010408D1010408D1010408D101040848
:10004000D1010408D1010408D1010408D101040838
:10005000D1010408D1010408D1010408D101040828
:10006000D1010408D1010408D1010408D101040818
:10007000D1010408D1010408D1010408D101040808
:10008000D1010408D1010408D1010408D1010408F8
:10009000D1010408D1010408D1010408D1010408E8
:1000A000D1010408D1010408D1010408D1010408D8
:1000B000D1010408D1010408D1010408D1010408C8
:1000C000D1010408D1010408D1010408D1010408B8
:1000D000D1010408D1010408D1010408D1010408A8
:1000E000D1010408D1010408D1010408D101040898
:1000F000D1010408D1010408D1010408D101040888
:10010000D1010408D1010408D1010408D101040877
:10011000D1010408D1010408D1010408D101040867
:10012000D1010408D1010408D1010408D101040857
:10013000704770474FF48000012100F005B808B502
:10014000FFF7F8FFFEE7000019B1054B1A6B1043EB
:1001500003E0034B1A6B22EA00001863704700BFEC
:100160000038024000000000000000000000000015
:10017000012007E0022005E0032003E0042001E065
:100180000520FFE7FEE70D4A0121116072B60C4A17
:1001900000211160064902B4074902B486B005493E
:1001A0008E467047AFF30080AFF30080AFF300805E
:1001B00000000061F9FFFFFF3301040814ED00E0C7
:1001C00010E000E0AFF30080AFF30080AFF30080F9
:1001D000FEE7000001498D460149084700F801206B
:1001E000E501040880B588B000AF384BFB61384B9F
:1001F000BB61364BFB61364BBB6149E0BB695B6859
:100200007B61BB699B683B61BB69DB68BB607A69EA
:100210003B699A421AD04FF00003FB6011E07B6902
:10022000D3E900233969C1E900233B6903F10803DD
:100230003B617B6903F108037B61FB6803F1080301
:10024000FB60FA68BB689A42E9D103E03A69BB688F
:10025000D3183B61BB691B69BB604FF00003FB60B7
:100260000EE039694FF000024FF00003C1E90023AE
:100270003B6903F108033B61FB6803F10803FB6082
:10028000FA68BB689A42ECD1BB6903F11403BB6105
:10029000FB69002B0CBF00230123DBB2FA6902F1DA
:1002A000FF32FA61002BA9D100F016F84FF00000E0
:1002B0004FF000014FF00002FFF741FF7860054B5F
:1002C000002B02D07868AFF30080FEE70100000049
:1002D000280304080000000070B540F2283640F200
:1002E0002835C0F60406C0F60405761BB61006D005
:1002F000002455F8243001349847A642F9D840F23A
:10030000283540F22836C0F60405C0F60406761BF0
:10031000FFF70EFFB61006D0002455F82430013444
:100320009847A642F9D870BD0000000048030408B1
:0C033000000C0020000000000000000095
:08033C0098FEFF7F01000000A4
:04000005080401D515
:00000001FF
